{
  "contractName": "SmartToken",
  "abi": [
    {
      "constant": true,
      "inputs": [],
      "name": "totalSupply",
      "outputs": [
        {
          "name": "",
          "type": "uint256"
        }
      ],
      "payable": false,
      "stateMutability": "view",
      "type": "function"
    },
    {
      "inputs": [],
      "payable": false,
      "stateMutability": "nonpayable",
      "type": "constructor"
    }
  ],
  "bytecode": "0x608060405234801561001057600080fd5b50633b9aca00600081905550609e8061002a6000396000f300608060405260043610603f576000357c0100000000000000000000000000000000000000000000000000000000900463ffffffff16806318160ddd146044575b600080fd5b348015604f57600080fd5b506056606c565b6040518082815260200191505060405180910390f35b600054815600a165627a7a723058207ae84e143ca83c21b2c980c12cced302dbdd838f3d9d3b52d6a5b9b2482b778c0029",
  "source": "pragma solidity ^0.4.2;\r\n\r\n\r\ncontract SmartToken {\r\n //We a constructor\r\n //we need a way to set the tokeks\r\n //we need a way to read the total number of tokens\r\n    uint256 public totalSupply;\r\n\r\n    function SmartToken () public {\r\n        totalSupply = 1000000000;\r\n\r\n    }\r\n\r\n\r\n}",
  "sourcePath": "c:\\blockchaintools\\tokenproject\\contracts\\SmartToken.sol",
  "compiler": {
    "name": "solc",
    "version": "0.4.24+commit.e67f0147.Emscripten.clang"
  },
  "schemaVersion": "2.0.0",
  "updatedAt": "2018-06-11T08:39:16.321Z"
}